{
  "contractName": "QA",
  "abi": [
    {
      "anonymous": false,
      "inputs": [
        {
          "indexed": false,
          "internalType": "address payable",
          "name": "userId",
          "type": "address"
        },
        {
          "indexed": false,
          "internalType": "string",
          "name": "tags",
          "type": "string"
        },
        {
          "indexed": false,
          "internalType": "string",
          "name": "title",
          "type": "string"
        },
        {
          "indexed": false,
          "internalType": "string",
          "name": "body",
          "type": "string"
        },
        {
          "components": [
            {
              "internalType": "address payable",
              "name": "ansUserId",
              "type": "address"
            },
            {
              "internalType": "string",
              "name": "ans",
              "type": "string"
            },
            {
              "internalType": "uint256",
              "name": "tipAmount",
              "type": "uint256"
            }
          ],
          "indexed": false,
          "internalType": "struct QA.Answer[]",
          "name": "answers",
          "type": "tuple[]"
        }
      ],
      "name": "QuestionAdded",
      "type": "event"
    },
    {
      "anonymous": false,
      "inputs": [
        {
          "indexed": false,
          "internalType": "address payable",
          "name": "ansUserId",
          "type": "address"
        },
        {
          "indexed": false,
          "internalType": "string",
          "name": "ans",
          "type": "string"
        },
        {
          "indexed": false,
          "internalType": "uint256",
          "name": "tipAmount",
          "type": "uint256"
        }
      ],
      "name": "addsAns",
      "type": "event"
    },
    {
      "anonymous": false,
      "inputs": [
        {
          "indexed": false,
          "internalType": "address payable",
          "name": "ansUserId",
          "type": "address"
        },
        {
          "indexed": false,
          "internalType": "string",
          "name": "ans",
          "type": "string"
        },
        {
          "indexed": false,
          "internalType": "uint256",
          "name": "tipAmount",
          "type": "uint256"
        }
      ],
      "name": "showAns",
      "type": "event"
    },
    {
      "anonymous": false,
      "inputs": [
        {
          "indexed": false,
          "internalType": "address payable",
          "name": "userId",
          "type": "address"
        },
        {
          "indexed": false,
          "internalType": "string",
          "name": "tags",
          "type": "string"
        },
        {
          "indexed": false,
          "internalType": "string",
          "name": "title",
          "type": "string"
        },
        {
          "indexed": false,
          "internalType": "string",
          "name": "body",
          "type": "string"
        },
        {
          "components": [
            {
              "internalType": "address payable",
              "name": "ansUserId",
              "type": "address"
            },
            {
              "internalType": "string",
              "name": "ans",
              "type": "string"
            },
            {
              "internalType": "uint256",
              "name": "tipAmount",
              "type": "uint256"
            }
          ],
          "indexed": false,
          "internalType": "struct QA.Answer[]",
          "name": "answers",
          "type": "tuple[]"
        }
      ],
      "name": "tipAns",
      "type": "event"
    },
    {
      "constant": true,
      "inputs": [
        {
          "internalType": "uint256",
          "name": "",
          "type": "uint256"
        }
      ],
      "name": "Ids",
      "outputs": [
        {
          "internalType": "string",
          "name": "",
          "type": "string"
        }
      ],
      "payable": false,
      "stateMutability": "view",
      "type": "function"
    },
    {
      "constant": true,
      "inputs": [],
      "name": "countids",
      "outputs": [
        {
          "internalType": "uint256",
          "name": "",
          "type": "uint256"
        }
      ],
      "payable": false,
      "stateMutability": "view",
      "type": "function"
    },
    {
      "constant": true,
      "inputs": [
        {
          "internalType": "string",
          "name": "",
          "type": "string"
        }
      ],
      "name": "questions",
      "outputs": [
        {
          "internalType": "address payable",
          "name": "userId",
          "type": "address"
        },
        {
          "internalType": "string",
          "name": "tags",
          "type": "string"
        },
        {
          "internalType": "string",
          "name": "title",
          "type": "string"
        },
        {
          "internalType": "string",
          "name": "body",
          "type": "string"
        },
        {
          "internalType": "uint256",
          "name": "cntAns",
          "type": "uint256"
        }
      ],
      "payable": false,
      "stateMutability": "view",
      "type": "function"
    },
    {
      "constant": false,
      "inputs": [
        {
          "internalType": "string",
          "name": "_QuestionId",
          "type": "string"
        },
        {
          "internalType": "string",
          "name": "_title",
          "type": "string"
        },
        {
          "internalType": "string",
          "name": "_body",
          "type": "string"
        },
        {
          "internalType": "string",
          "name": "_tags",
          "type": "string"
        }
      ],
      "name": "addQuestion",
      "outputs": [],
      "payable": false,
      "stateMutability": "nonpayable",
      "type": "function"
    },
    {
      "constant": false,
      "inputs": [
        {
          "internalType": "string",
          "name": "_QuestionId",
          "type": "string"
        },
        {
          "internalType": "string",
          "name": "_ans",
          "type": "string"
        }
      ],
      "name": "addAnswer",
      "outputs": [],
      "payable": false,
      "stateMutability": "nonpayable",
      "type": "function"
    },
    {
      "constant": false,
      "inputs": [
        {
          "internalType": "string",
          "name": "QuestionId",
          "type": "string"
        },
        {
          "internalType": "uint256",
          "name": "id",
          "type": "uint256"
        }
      ],
      "name": "showAnswer",
      "outputs": [
        {
          "internalType": "address",
          "name": "ansUserId",
          "type": "address"
        },
        {
          "internalType": "string",
          "name": "ans",
          "type": "string"
        },
        {
          "internalType": "uint256",
          "name": "tipAmount",
          "type": "uint256"
        }
      ],
      "payable": false,
      "stateMutability": "nonpayable",
      "type": "function"
    },
    {
      "constant": false,
      "inputs": [
        {
          "internalType": "string",
          "name": "QuestionId",
          "type": "string"
        },
        {
          "internalType": "uint256",
          "name": "id",
          "type": "uint256"
        }
      ],
      "name": "tipAnswer",
      "outputs": [],
      "payable": true,
      "stateMutability": "payable",
      "type": "function"
    }
  ],
  "bytecode": "0x6080604052600060015534801561001557600080fd5b50611807806100256000396000f3fe6080604052600436106100705760003560e01c8063a694939a1161004e578063a694939a1461011c578063e419e2a914610145578063f364317914610184578063f834048c146101af57610070565b806310eb7a41146100755780637800b33b1461009e57806384094130146100df575b600080fd5b34801561008157600080fd5b5061009c60048036036100979190810190610f45565b6101cb565b005b3480156100aa57600080fd5b506100c560048036036100c09190810190610e98565b610325565b6040516100d69594939291906113e4565b60405180910390f35b3480156100eb57600080fd5b506101066004803603610101919081019061105c565b610559565b6040516101139190611537565b60405180910390f35b34801561012857600080fd5b50610143600480360361013e9190810190610ed9565b610612565b005b34801561015157600080fd5b5061016c60048036036101679190810190611008565b610766565b60405161017b939291906114f9565b60405180910390f35b34801561019057600080fd5b50610199610927565b6040516101a69190611559565b60405180910390f35b6101c960048036036101c49190810190611008565b61092d565b005b600160008154600101919050819055506002849080600181540180825580915050906001820390600052602060002001600090919290919091509080519060200190610218929190610c7f565b50506000808560405161022b919061138f565b90815260200160405180910390209050338160000160006101000a81548173ffffffffffffffffffffffffffffffffffffffff021916908373ffffffffffffffffffffffffffffffffffffffff16021790555083816002019080519060200190610296929190610c7f565b50828160030190805190602001906102af929190610c7f565b50818160010190805190602001906102c8929190610c7f565b50600081600401819055507f5a68f4e7981c059e170220ca4c2bd5ed8df9c493f0885b2b8a4ea3b448a178f5338260010183600201846003018560050160405161031695949392919061148a565b60405180910390a15050505050565b6000818051602081018201805184825260208301602085012081835280955050505050506000915090508060000160009054906101000a900473ffffffffffffffffffffffffffffffffffffffff1690806001018054600181600116156101000203166002900480601f01602080910402602001604051908101604052809291908181526020018280546001816001161561010002031660029004801561040d5780601f106103e25761010080835404028352916020019161040d565b820191906000526020600020905b8154815290600101906020018083116103f057829003601f168201915b505050505090806002018054600181600116156101000203166002900480601f0160208091040260200160405190810160405280929190818152602001828054600181600116156101000203166002900480156104ab5780601f10610480576101008083540402835291602001916104ab565b820191906000526020600020905b81548152906001019060200180831161048e57829003601f168201915b505050505090806003018054600181600116156101000203166002900480601f0160208091040260200160405190810160405280929190818152602001828054600181600116156101000203166002900480156105495780601f1061051e57610100808354040283529160200191610549565b820191906000526020600020905b81548152906001019060200180831161052c57829003601f168201915b5050505050908060040154905085565b6002818154811061056657fe5b906000526020600020016000915090508054600181600116156101000203166002900480601f01602080910402602001604051908101604052809291908181526020018280546001816001161561010002031660029004801561060a5780601f106105df5761010080835404028352916020019161060a565b820191906000526020600020905b8154815290600101906020018083116105ed57829003601f168201915b505050505081565b60008083604051610623919061138f565b90815260200160405180910390209050806004016000815480929190600101919050555061064f610cff565b60405180606001604052803373ffffffffffffffffffffffffffffffffffffffff1681526020018481526020016000815250905081600501819080600181540180825580915050906001820390600052602060002090600302016000909192909190915060008201518160000160006101000a81548173ffffffffffffffffffffffffffffffffffffffff021916908373ffffffffffffffffffffffffffffffffffffffff1602179055506020820151816001019080519060200190610716929190610d36565b50604082015181600201555050507f4a38cf62734c7f8272c3cfb4350d79f9da6911ccc8dff99c813d90ccaadb82a833846000604051610758939291906113a6565b60405180910390a150505050565b600060606000610774610cff565b600086604051610784919061138f565b908152602001604051809103902060050185815481106107a057fe5b90600052602060002090600302016040518060600160405290816000820160009054906101000a900473ffffffffffffffffffffffffffffffffffffffff1673ffffffffffffffffffffffffffffffffffffffff1673ffffffffffffffffffffffffffffffffffffffff168152602001600182018054600181600116156101000203166002900480601f0160208091040260200160405190810160405280929190818152602001828054600181600116156101000203166002900480156108a85780601f1061087d576101008083540402835291602001916108a8565b820191906000526020600020905b81548152906001019060200180831161088b57829003601f168201915b5050505050815260200160028201548152505090507f361815b6a66e6e4dde94ed1b13b21e3ef35c0f4da3ec8e5b06eff98efaaf01578160000151826020015183604001516040516108fc9392919061144c565b60405180910390a1806000015181602001518260400151829250819150935093509350509250925092565b60015481565b6000808360405161093e919061138f565b9081526020016040518091039020600501805490501161095d57600080fd5b610965610cff565b600083604051610975919061138f565b9081526020016040518091039020600501828154811061099157fe5b90600052602060002090600302016040518060600160405290816000820160009054906101000a900473ffffffffffffffffffffffffffffffffffffffff1673ffffffffffffffffffffffffffffffffffffffff1673ffffffffffffffffffffffffffffffffffffffff168152602001600182018054600181600116156101000203166002900480601f016020809104026020016040519081016040528092919081815260200182805460018160011615610100020316600290048015610a995780601f10610a6e57610100808354040283529160200191610a99565b820191906000526020600020905b815481529060010190602001808311610a7c57829003601f168201915b5050505050815260200160028201548152505090506000816000015190508073ffffffffffffffffffffffffffffffffffffffff166108fc349081150290604051600060405180830381858888f19350505050158015610afd573d6000803e3d6000fd5b503482604001818151019150818152505081600085604051610b1f919061138f565b90815260200160405180910390206005018481548110610b3b57fe5b906000526020600020906003020160008201518160000160006101000a81548173ffffffffffffffffffffffffffffffffffffffff021916908373ffffffffffffffffffffffffffffffffffffffff1602179055506020820151816001019080519060200190610bac929190610d36565b50604082015181600201559050507fa2fe186301755b31238d2cb18cfbb9ea9743a4dd13687f5dac0dc2caccddd2e233600086604051610bec919061138f565b9081526020016040518091039020600101600087604051610c0d919061138f565b9081526020016040518091039020600201600088604051610c2e919061138f565b9081526020016040518091039020600301600089604051610c4f919061138f565b9081526020016040518091039020600501604051610c7195949392919061148a565b60405180910390a150505050565b828054600181600116156101000203166002900490600052602060002090601f016020900481019282601f10610cc057805160ff1916838001178555610cee565b82800160010185558215610cee579182015b82811115610ced578251825591602001919060010190610cd2565b5b509050610cfb9190610db6565b5090565b6040518060600160405280600073ffffffffffffffffffffffffffffffffffffffff16815260200160608152602001600081525090565b828054600181600116156101000203166002900490600052602060002090601f016020900481019282601f10610d7757805160ff1916838001178555610da5565b82800160010185558215610da5579182015b82811115610da4578251825591602001919060010190610d89565b5b509050610db29190610db6565b5090565b610dd891905b80821115610dd4576000816000905550600101610dbc565b5090565b90565b600082601f830112610dec57600080fd5b8135610dff610dfa826115a1565b611574565b91508082526020830160208301858383011115610e1b57600080fd5b610e26838284611719565b50505092915050565b600082601f830112610e4057600080fd5b8135610e53610e4e826115cd565b611574565b91508082526020830160208301858383011115610e6f57600080fd5b610e7a838284611719565b50505092915050565b600081359050610e92816117ad565b92915050565b600060208284031215610eaa57600080fd5b600082013567ffffffffffffffff811115610ec457600080fd5b610ed084828501610ddb565b91505092915050565b60008060408385031215610eec57600080fd5b600083013567ffffffffffffffff811115610f0657600080fd5b610f1285828601610e2f565b925050602083013567ffffffffffffffff811115610f2f57600080fd5b610f3b85828601610e2f565b9150509250929050565b60008060008060808587031215610f5b57600080fd5b600085013567ffffffffffffffff811115610f7557600080fd5b610f8187828801610e2f565b945050602085013567ffffffffffffffff811115610f9e57600080fd5b610faa87828801610e2f565b935050604085013567ffffffffffffffff811115610fc757600080fd5b610fd387828801610e2f565b925050606085013567ffffffffffffffff811115610ff057600080fd5b610ffc87828801610e2f565b91505092959194509250565b6000806040838503121561101b57600080fd5b600083013567ffffffffffffffff81111561103557600080fd5b61104185828601610e2f565b925050602061105285828601610e83565b9150509250929050565b60006020828403121561106e57600080fd5b600061107c84828501610e83565b91505092915050565b6000611091838361130a565b905092915050565b6110a2816116cb565b82525050565b6110b1816116cb565b82525050565b6110c0816116b9565b82525050565b60006110d182611623565b6110db8185611651565b9350836020820285016110ed856115f9565b8060005b85811015611128578484038952816111098582611085565b945061111483611644565b925060208a019950506001810190506110f1565b50829750879550505050505092915050565b61114381611707565b82525050565b600061115482611639565b61115e8185611673565b935061116e818560208601611728565b6111778161178f565b840191505092915050565b600061118d82611639565b6111978185611684565b93506111a7818560208601611728565b80840191505092915050565b60006111be8261162e565b6111c88185611673565b93506111d8818560208601611728565b6111e18161178f565b840191505092915050565b600081546001811660008114611209576001811461122f57611273565b607f600283041661121a8187611662565b955060ff198316865260208601935050611273565b6002820461123d8187611662565b95506112488561160e565b60005b8281101561126a5781548189015260018201915060208101905061124b565b80880195505050505b505092915050565b60008154600181166000811461129857600181146112be57611302565b607f60028304166112a98187611673565b955060ff198316865260208601935050611302565b600282046112cc8187611673565b95506112d78561160e565b60005b828110156112f9578154818901526001820191506020810190506112da565b80880195505050505b505092915050565b60006060830160008084015490506113218161175b565b61132e6000870182611099565b5060018401858303602087015261134583826111ec565b9250506002840154905061135881611775565b6113656040870182611371565b50819250505092915050565b61137a816116fd565b82525050565b611389816116fd565b82525050565b600061139b8284611182565b915081905092915050565b60006060820190506113bb60008301866110a8565b81810360208301526113cd8185611149565b90506113dc604083018461113a565b949350505050565b600060a0820190506113f960008301886110a8565b818103602083015261140b81876111b3565b9050818103604083015261141f81866111b3565b9050818103606083015261143381856111b3565b90506114426080830184611380565b9695505050505050565b600060608201905061146160008301866110a8565b818103602083015261147381856111b3565b90506114826040830184611380565b949350505050565b600060a08201905061149f60008301886110a8565b81810360208301526114b1818761127b565b905081810360408301526114c5818661127b565b905081810360608301526114d9818561127b565b905081810360808301526114ed81846110c6565b90509695505050505050565b600060608201905061150e60008301866110b7565b81810360208301526115208185611149565b905061152f6040830184611380565b949350505050565b6000602082019050818103600083015261155181846111b3565b905092915050565b600060208201905061156e6000830184611380565b92915050565b6000604051905081810181811067ffffffffffffffff8211171561159757600080fd5b8060405250919050565b600067ffffffffffffffff8211156115b857600080fd5b601f19601f8301169050602081019050919050565b600067ffffffffffffffff8211156115e457600080fd5b601f19601f8301169050602081019050919050565b60008190508160005260206000209050919050565b60008190508160005260206000209050919050565b600081549050919050565b600081519050919050565b600081519050919050565b6000600382019050919050565b600082825260208201905092915050565b600082825260208201905092915050565b600082825260208201905092915050565b600081905092915050565b600073ffffffffffffffffffffffffffffffffffffffff82169050919050565b6000819050919050565b60006116c4826116dd565b9050919050565b60006116d6826116dd565b9050919050565b600073ffffffffffffffffffffffffffffffffffffffff82169050919050565b6000819050919050565b6000611712826116fd565b9050919050565b82818337600083830152505050565b60005b8381101561174657808201518184015260208101905061172b565b83811115611755576000848401525b50505050565b600061176e611769836117a0565b61168f565b9050919050565b6000611788611783836117a0565b6116af565b9050919050565b6000601f19601f8301169050919050565b60008160001c9050919050565b6117b6816116fd565b81146117c157600080fd5b5056fea365627a7a723158200da59b14313975998ccc38daed3884a35296647aaf103cab97c756a6f341eab86c6578706572696d656e74616cf564736f6c63430005100040",
  "source": "pragma solidity >=0.4.21 <0.9.0;\npragma experimental ABIEncoderV2;\n\ncontract QA {\n    // Structure of Post\n    mapping(string => Question) public questions;\n    uint256 public countids = 0;\n    string[] public Ids;\n\n    struct Question {\n        address payable userId;\n        string tags;\n        string title;\n        string body;\n        uint256 cntAns;\n        Answer[] answers;\n    }\n\n    struct Answer {\n        address payable ansUserId;\n        string ans;\n        uint256 tipAmount;\n    }\n\n    event QuestionAdded(\n        address payable userId,\n        string tags,\n        string title,\n        string body,\n        Answer[] answers\n    );\n\n    event tipAns(\n        address payable userId,\n        string tags,\n        string title,\n        string body,\n        Answer[] answers\n    );\n\n    event addsAns(address payable ansUserId, string ans, uint256 tipAmount);\n\n    event showAns(address payable ansUserId, string ans, uint256 tipAmount);\n\n    // create question\n    function addQuestion(\n        string memory _QuestionId,\n        string memory _title,\n        string memory _body,\n        string memory _tags\n    ) public {\n        ++countids;\n        Ids.push(_QuestionId);\n        Question storage que = questions[_QuestionId];\n        que.userId = msg.sender;\n        que.title = _title;\n        que.body = _body;\n        que.tags = _tags;\n        que.cntAns = 0;\n        emit QuestionAdded(\n            msg.sender,\n            que.tags,\n            que.title,\n            que.body,\n            que.answers\n        );\n    }\n\n    // create answer\n    function addAnswer(string memory _QuestionId, string memory _ans) public {\n        Question storage que = questions[_QuestionId];\n        que.cntAns++;\n        Answer memory ans = Answer(msg.sender, _ans, 0);\n        que.answers.push(ans);\n        emit addsAns(msg.sender, _ans, 0);\n    }\n\n    function showAnswer(string memory QuestionId, uint256 id)\n        public\n        returns (\n            address ansUserId,\n            string memory ans,\n            uint256 tipAmount\n        )\n    {\n        Answer memory _answer = questions[QuestionId].answers[id];\n        emit showAns(_answer.ansUserId, _answer.ans, _answer.tipAmount);\n        return (_answer.ansUserId, _answer.ans, _answer.tipAmount);\n    }\n\n    // tip answer\n    function tipAnswer(string memory QuestionId, uint256 id) public payable {\n        require(questions[QuestionId].answers.length > 0);\n        Answer memory _answer = questions[QuestionId].answers[id];\n        address payable _author = _answer.ansUserId;\n        address(_author).transfer(msg.value);\n        _answer.tipAmount += msg.value;\n        questions[QuestionId].answers[id] = _answer;\n        emit tipAns(\n            msg.sender,\n            questions[QuestionId].tags,\n            questions[QuestionId].title,\n            questions[QuestionId].body,\n            questions[QuestionId].answers\n        );\n    }\n}\n",
  "sourcePath": "/home/smit/stackOverflow-blockChain/src/contracts/QA.sol",
  "compiler": {
    "name": "solc",
    "version": "0.5.16+commit.9c3226ce.Emscripten.clang"
  },
  "schemaVersion": "3.2.5",
  "updatedAt": "2021-09-23T04:23:17.646Z",
  "networkType": "ethereum",
  "devdoc": {
    "methods": {}
  },
  "userdoc": {
    "methods": {}
  }
}