{
  "contractName": "QA",
  "abi": [
    {
      "anonymous": false,
      "inputs": [
        {
          "indexed": false,
          "internalType": "address payable",
          "name": "userId",
          "type": "address"
        },
        {
          "indexed": false,
          "internalType": "string",
          "name": "tags",
          "type": "string"
        },
        {
          "indexed": false,
          "internalType": "string",
          "name": "title",
          "type": "string"
        },
        {
          "indexed": false,
          "internalType": "string",
          "name": "body",
          "type": "string"
        }
      ],
      "name": "QuestionAdded",
      "type": "event"
    },
    {
      "anonymous": false,
      "inputs": [
        {
          "indexed": false,
          "internalType": "address payable",
          "name": "ansUserId",
          "type": "address"
        },
        {
          "indexed": false,
          "internalType": "string",
          "name": "ans",
          "type": "string"
        },
        {
          "indexed": false,
          "internalType": "uint256",
          "name": "tipAmount",
          "type": "uint256"
        }
      ],
      "name": "addsAns",
      "type": "event"
    },
    {
      "anonymous": false,
      "inputs": [
        {
          "indexed": false,
          "internalType": "address payable",
          "name": "userId",
          "type": "address"
        },
        {
          "indexed": false,
          "internalType": "string",
          "name": "tags",
          "type": "string"
        },
        {
          "indexed": false,
          "internalType": "string",
          "name": "title",
          "type": "string"
        },
        {
          "indexed": false,
          "internalType": "string",
          "name": "body",
          "type": "string"
        },
        {
          "components": [
            {
              "internalType": "address payable",
              "name": "ansUserId",
              "type": "address"
            },
            {
              "internalType": "string",
              "name": "ans",
              "type": "string"
            },
            {
              "internalType": "uint256",
              "name": "tipAmount",
              "type": "uint256"
            }
          ],
          "indexed": false,
          "internalType": "struct QA.Answer[]",
          "name": "answers",
          "type": "tuple[]"
        }
      ],
      "name": "tipAns",
      "type": "event"
    },
    {
      "constant": true,
      "inputs": [
        {
          "internalType": "uint256",
          "name": "",
          "type": "uint256"
        }
      ],
      "name": "Ids",
      "outputs": [
        {
          "internalType": "string",
          "name": "",
          "type": "string"
        }
      ],
      "payable": false,
      "stateMutability": "view",
      "type": "function"
    },
    {
      "constant": true,
      "inputs": [],
      "name": "countids",
      "outputs": [
        {
          "internalType": "uint256",
          "name": "",
          "type": "uint256"
        }
      ],
      "payable": false,
      "stateMutability": "view",
      "type": "function"
    },
    {
      "constant": true,
      "inputs": [
        {
          "internalType": "string",
          "name": "",
          "type": "string"
        }
      ],
      "name": "questions",
      "outputs": [
        {
          "internalType": "address payable",
          "name": "userId",
          "type": "address"
        },
        {
          "internalType": "string",
          "name": "tags",
          "type": "string"
        },
        {
          "internalType": "string",
          "name": "title",
          "type": "string"
        },
        {
          "internalType": "string",
          "name": "body",
          "type": "string"
        },
        {
          "internalType": "uint256",
          "name": "cntAns",
          "type": "uint256"
        }
      ],
      "payable": false,
      "stateMutability": "view",
      "type": "function"
    },
    {
      "constant": false,
      "inputs": [
        {
          "internalType": "string",
          "name": "_QuestionId",
          "type": "string"
        },
        {
          "internalType": "string",
          "name": "_title",
          "type": "string"
        },
        {
          "internalType": "string",
          "name": "_body",
          "type": "string"
        },
        {
          "internalType": "string",
          "name": "_tags",
          "type": "string"
        }
      ],
      "name": "addQuestion",
      "outputs": [],
      "payable": false,
      "stateMutability": "nonpayable",
      "type": "function"
    },
    {
      "constant": false,
      "inputs": [
        {
          "internalType": "string",
          "name": "_QuestionId",
          "type": "string"
        },
        {
          "internalType": "string",
          "name": "_ans",
          "type": "string"
        }
      ],
      "name": "addAnswer",
      "outputs": [],
      "payable": false,
      "stateMutability": "nonpayable",
      "type": "function"
    },
    {
      "constant": false,
      "inputs": [
        {
          "internalType": "string",
          "name": "QuestionId",
          "type": "string"
        },
        {
          "internalType": "uint256",
          "name": "id",
          "type": "uint256"
        }
      ],
      "name": "tipAnswer",
      "outputs": [],
      "payable": true,
      "stateMutability": "payable",
      "type": "function"
    }
  ],
  "bytecode": "0x6080604052600060015534801561001557600080fd5b506115a4806100256000396000f3fe6080604052600436106100555760003560e01c806310eb7a411461005a5780637800b33b1461008357806384094130146100c4578063a694939a14610101578063f36431791461012a578063f834048c14610155575b600080fd5b34801561006657600080fd5b50610081600480360361007c9190810190610d25565b610171565b005b34801561008f57600080fd5b506100aa60048036036100a59190810190610c78565b6102c6565b6040516100bb9594939291906111b5565b60405180910390f35b3480156100d057600080fd5b506100eb60048036036100e69190810190610e3c565b6104fa565b6040516100f891906112e6565b60405180910390f35b34801561010d57600080fd5b5061012860048036036101239190810190610cb9565b6105b3565b005b34801561013657600080fd5b5061013f610707565b60405161014c9190611308565b60405180910390f35b61016f600480360361016a9190810190610de8565b61070d565b005b6001600081546001019190508190555060028490806001815401808255809150509060018203906000526020600020016000909192909190915090805190602001906101be929190610a5f565b5050600080856040516101d19190611160565b90815260200160405180910390209050338160000160006101000a81548173ffffffffffffffffffffffffffffffffffffffff021916908373ffffffffffffffffffffffffffffffffffffffff1602179055508381600201908051906020019061023c929190610a5f565b5082816003019080519060200190610255929190610a5f565b508181600101908051906020019061026e929190610a5f565b50600081600401819055507f212b43d895cd658d54d087d19b355edef3d019cc12e114a1eaa81b9671871814338260010183600201846003016040516102b7949392919061121d565b60405180910390a15050505050565b6000818051602081018201805184825260208301602085012081835280955050505050506000915090508060000160009054906101000a900473ffffffffffffffffffffffffffffffffffffffff1690806001018054600181600116156101000203166002900480601f0160208091040260200160405190810160405280929190818152602001828054600181600116156101000203166002900480156103ae5780601f10610383576101008083540402835291602001916103ae565b820191906000526020600020905b81548152906001019060200180831161039157829003601f168201915b505050505090806002018054600181600116156101000203166002900480601f01602080910402602001604051908101604052809291908181526020018280546001816001161561010002031660029004801561044c5780601f106104215761010080835404028352916020019161044c565b820191906000526020600020905b81548152906001019060200180831161042f57829003601f168201915b505050505090806003018054600181600116156101000203166002900480601f0160208091040260200160405190810160405280929190818152602001828054600181600116156101000203166002900480156104ea5780601f106104bf576101008083540402835291602001916104ea565b820191906000526020600020905b8154815290600101906020018083116104cd57829003601f168201915b5050505050908060040154905085565b6002818154811061050757fe5b906000526020600020016000915090508054600181600116156101000203166002900480601f0160208091040260200160405190810160405280929190818152602001828054600181600116156101000203166002900480156105ab5780601f10610580576101008083540402835291602001916105ab565b820191906000526020600020905b81548152906001019060200180831161058e57829003601f168201915b505050505081565b600080836040516105c49190611160565b9081526020016040518091039020905080600401600081548092919060010191905055506105f0610adf565b60405180606001604052803373ffffffffffffffffffffffffffffffffffffffff1681526020018481526020016000815250905081600501819080600181540180825580915050906001820390600052602060002090600302016000909192909190915060008201518160000160006101000a81548173ffffffffffffffffffffffffffffffffffffffff021916908373ffffffffffffffffffffffffffffffffffffffff16021790555060208201518160010190805190602001906106b7929190610b16565b50604082015181600201555050507f4a38cf62734c7f8272c3cfb4350d79f9da6911ccc8dff99c813d90ccaadb82a8338460006040516106f993929190611177565b60405180910390a150505050565b60015481565b6000808360405161071e9190611160565b9081526020016040518091039020600501805490501161073d57600080fd5b610745610adf565b6000836040516107559190611160565b9081526020016040518091039020600501828154811061077157fe5b90600052602060002090600302016040518060600160405290816000820160009054906101000a900473ffffffffffffffffffffffffffffffffffffffff1673ffffffffffffffffffffffffffffffffffffffff1673ffffffffffffffffffffffffffffffffffffffff168152602001600182018054600181600116156101000203166002900480601f0160208091040260200160405190810160405280929190818152602001828054600181600116156101000203166002900480156108795780601f1061084e57610100808354040283529160200191610879565b820191906000526020600020905b81548152906001019060200180831161085c57829003601f168201915b5050505050815260200160028201548152505090506000816000015190508073ffffffffffffffffffffffffffffffffffffffff166108fc349081150290604051600060405180830381858888f193505050501580156108dd573d6000803e3d6000fd5b5034826040018181510191508181525050816000856040516108ff9190611160565b9081526020016040518091039020600501848154811061091b57fe5b906000526020600020906003020160008201518160000160006101000a81548173ffffffffffffffffffffffffffffffffffffffff021916908373ffffffffffffffffffffffffffffffffffffffff160217905550602082015181600101908051906020019061098c929190610b16565b50604082015181600201559050507fa2fe186301755b31238d2cb18cfbb9ea9743a4dd13687f5dac0dc2caccddd2e2336000866040516109cc9190611160565b90815260200160405180910390206001016000876040516109ed9190611160565b9081526020016040518091039020600201600088604051610a0e9190611160565b9081526020016040518091039020600301600089604051610a2f9190611160565b9081526020016040518091039020600501604051610a51959493929190611277565b60405180910390a150505050565b828054600181600116156101000203166002900490600052602060002090601f016020900481019282601f10610aa057805160ff1916838001178555610ace565b82800160010185558215610ace579182015b82811115610acd578251825591602001919060010190610ab2565b5b509050610adb9190610b96565b5090565b6040518060600160405280600073ffffffffffffffffffffffffffffffffffffffff16815260200160608152602001600081525090565b828054600181600116156101000203166002900490600052602060002090601f016020900481019282601f10610b5757805160ff1916838001178555610b85565b82800160010185558215610b85579182015b82811115610b84578251825591602001919060010190610b69565b5b509050610b929190610b96565b5090565b610bb891905b80821115610bb4576000816000905550600101610b9c565b5090565b90565b600082601f830112610bcc57600080fd5b8135610bdf610bda82611350565b611323565b91508082526020830160208301858383011115610bfb57600080fd5b610c068382846114b6565b50505092915050565b600082601f830112610c2057600080fd5b8135610c33610c2e8261137c565b611323565b91508082526020830160208301858383011115610c4f57600080fd5b610c5a8382846114b6565b50505092915050565b600081359050610c728161154a565b92915050565b600060208284031215610c8a57600080fd5b600082013567ffffffffffffffff811115610ca457600080fd5b610cb084828501610bbb565b91505092915050565b60008060408385031215610ccc57600080fd5b600083013567ffffffffffffffff811115610ce657600080fd5b610cf285828601610c0f565b925050602083013567ffffffffffffffff811115610d0f57600080fd5b610d1b85828601610c0f565b9150509250929050565b60008060008060808587031215610d3b57600080fd5b600085013567ffffffffffffffff811115610d5557600080fd5b610d6187828801610c0f565b945050602085013567ffffffffffffffff811115610d7e57600080fd5b610d8a87828801610c0f565b935050604085013567ffffffffffffffff811115610da757600080fd5b610db387828801610c0f565b925050606085013567ffffffffffffffff811115610dd057600080fd5b610ddc87828801610c0f565b91505092959194509250565b60008060408385031215610dfb57600080fd5b600083013567ffffffffffffffff811115610e1557600080fd5b610e2185828601610c0f565b9250506020610e3285828601610c63565b9150509250929050565b600060208284031215610e4e57600080fd5b6000610e5c84828501610c63565b91505092915050565b6000610e7183836110db565b905092915050565b610e8281611468565b82525050565b610e9181611468565b82525050565b6000610ea2826113d2565b610eac8185611400565b935083602082028501610ebe856113a8565b8060005b85811015610ef957848403895281610eda8582610e65565b9450610ee5836113f3565b925060208a01995050600181019050610ec2565b50829750879550505050505092915050565b610f14816114a4565b82525050565b6000610f25826113e8565b610f2f8185611422565b9350610f3f8185602086016114c5565b610f488161152c565b840191505092915050565b6000610f5e826113e8565b610f688185611433565b9350610f788185602086016114c5565b80840191505092915050565b6000610f8f826113dd565b610f998185611422565b9350610fa98185602086016114c5565b610fb28161152c565b840191505092915050565b600081546001811660008114610fda576001811461100057611044565b607f6002830416610feb8187611411565b955060ff198316865260208601935050611044565b6002820461100e8187611411565b9550611019856113bd565b60005b8281101561103b5781548189015260018201915060208101905061101c565b80880195505050505b505092915050565b600081546001811660008114611069576001811461108f576110d3565b607f600283041661107a8187611422565b955060ff1983168652602086019350506110d3565b6002820461109d8187611422565b95506110a8856113bd565b60005b828110156110ca578154818901526001820191506020810190506110ab565b80880195505050505b505092915050565b60006060830160008084015490506110f2816114f8565b6110ff6000870182610e79565b506001840185830360208701526111168382610fbd565b9250506002840154905061112981611512565b6111366040870182611142565b50819250505092915050565b61114b8161149a565b82525050565b61115a8161149a565b82525050565b600061116c8284610f53565b915081905092915050565b600060608201905061118c6000830186610e88565b818103602083015261119e8185610f1a565b90506111ad6040830184610f0b565b949350505050565b600060a0820190506111ca6000830188610e88565b81810360208301526111dc8187610f84565b905081810360408301526111f08186610f84565b905081810360608301526112048185610f84565b90506112136080830184611151565b9695505050505050565b60006080820190506112326000830187610e88565b8181036020830152611244818661104c565b90508181036040830152611258818561104c565b9050818103606083015261126c818461104c565b905095945050505050565b600060a08201905061128c6000830188610e88565b818103602083015261129e818761104c565b905081810360408301526112b2818661104c565b905081810360608301526112c6818561104c565b905081810360808301526112da8184610e97565b90509695505050505050565b600060208201905081810360008301526113008184610f84565b905092915050565b600060208201905061131d6000830184611151565b92915050565b6000604051905081810181811067ffffffffffffffff8211171561134657600080fd5b8060405250919050565b600067ffffffffffffffff82111561136757600080fd5b601f19601f8301169050602081019050919050565b600067ffffffffffffffff82111561139357600080fd5b601f19601f8301169050602081019050919050565b60008190508160005260206000209050919050565b60008190508160005260206000209050919050565b600081549050919050565b600081519050919050565b600081519050919050565b6000600382019050919050565b600082825260208201905092915050565b600082825260208201905092915050565b600082825260208201905092915050565b600081905092915050565b600073ffffffffffffffffffffffffffffffffffffffff82169050919050565b6000819050919050565b60006114738261147a565b9050919050565b600073ffffffffffffffffffffffffffffffffffffffff82169050919050565b6000819050919050565b60006114af8261149a565b9050919050565b82818337600083830152505050565b60005b838110156114e35780820151818401526020810190506114c8565b838111156114f2576000848401525b50505050565b600061150b6115068361153d565b61143e565b9050919050565b60006115256115208361153d565b61145e565b9050919050565b6000601f19601f8301169050919050565b60008160001c9050919050565b6115538161149a565b811461155e57600080fd5b5056fea365627a7a72315820f445f01a7f4269abbe5de93f13c2b4503d2706d236a599644256157de43761a96c6578706572696d656e74616cf564736f6c63430005100040",
  "source": "pragma solidity >=0.4.21 <0.9.0;\npragma experimental ABIEncoderV2;\n\ncontract QA {\n    // Structure of Post\n    mapping(string => Question) public questions;\n    uint256 public countids = 0;\n    string[] public Ids;\n\n    struct Question {\n        address payable userId;\n        string tags;\n        string title;\n        string body;\n        uint256 cntAns;\n        Answer[] answers;\n    }\n\n    struct Answer {\n        address payable ansUserId;\n        string ans;\n        uint256 tipAmount;\n    }\n\n    event QuestionAdded(\n        address payable userId,\n        string tags,\n        string title,\n        string body\n    );\n\n    event tipAns(\n        address payable userId,\n        string tags,\n        string title,\n        string body,\n        Answer[] answers\n    );\n\n    event addsAns(address payable ansUserId, string ans, uint256 tipAmount);\n\n    // create question\n    function addQuestion(\n        string memory _QuestionId,\n        string memory _title,\n        string memory _body,\n        string memory _tags\n    ) public {\n        ++countids;\n        Ids.push(_QuestionId);\n        Question storage que = questions[_QuestionId];\n        que.userId = msg.sender;\n        que.title = _title;\n        que.body = _body;\n        que.tags = _tags;\n        que.cntAns = 0;\n        emit QuestionAdded(msg.sender, que.tags, que.title, que.body);\n    }\n\n    // create answer\n    function addAnswer(string memory _QuestionId, string memory _ans) public {\n        Question storage que = questions[_QuestionId];\n        que.cntAns++;\n        Answer memory ans = Answer(msg.sender, _ans, 0);\n        que.answers.push(ans);\n        emit addsAns(msg.sender, _ans, 0);\n    }\n\n    // tip answer\n    function tipAnswer(string memory QuestionId, uint256 id) public payable {\n        require(questions[QuestionId].answers.length > 0);\n        Answer memory _answer = questions[QuestionId].answers[id];\n        address payable _author = _answer.ansUserId;\n        address(_author).transfer(msg.value);\n        _answer.tipAmount += msg.value;\n        questions[QuestionId].answers[id] = _answer;\n        emit tipAns(\n            msg.sender,\n            questions[QuestionId].tags,\n            questions[QuestionId].title,\n            questions[QuestionId].body,\n            questions[QuestionId].answers\n        );\n    }\n}\n",
  "sourcePath": "/home/smit/stackOverflow-blockChain/src/contracts/QA.sol",
  "compiler": {
    "name": "solc",
    "version": "0.5.16+commit.9c3226ce.Emscripten.clang"
  },
  "schemaVersion": "3.2.5",
  "updatedAt": "2021-09-22T10:38:31.756Z",
  "networkType": "ethereum",
  "devdoc": {
    "methods": {}
  },
  "userdoc": {
    "methods": {}
  }
}